:100000000C9462000C948A000C948A000C948A0070
:100010000C948A000C948A000C948A000C948A0038
:100020000C948A000C948A000C948A000C948A0028
:100030000C948A000C948A000C948D020C948A0013
:100040000C944F070C948A000C948A000C948A003C
:100050000C948A000C948A000C948A000C948A00F8
:100060000C948A000C948A000000000024002700F1
:100070002A0000000000250028002B0000000000DE
:1000800023002600290004040404040404040202DA
:100090000202020203030303030301020408102007
:1000A0004080010204081020010204081020000012
:1000B0000008000201000003040700000000000027
:1000C00000001D1111241FBECFEFD8E0DEBFCDBF51
:1000D00011E0A0E0B1E0EEECF3E202C005900D9279
:1000E000A232B107D9F721E0A2E2B1E001C01D922E
:1000F000A23AB207E1F710E0C2E6D0E004C02197CF
:10010000FE010E94CB11C136D107C9F70E949907A1
:100110000C94E5110C9400000F931F93CF93DF9381
:10012000209155012F5F322F37703093550120FFFA
:1001300002C020E801C020E031FD2064347009F0E5
:100140002062205FFC01EC01239600E011E0648551
:10015000662331F070E0C8010E9476116F5F01C024
:1001600060E06187322F369F030E30E0311D11248D
:10017000311102C0168202C031503683662311F05D
:10018000615061873196CE17DF0709F7DF91CF9174
:100190001F910F91089587FF02C0419A01C04198B5
:1001A000409A001400144098001486FF02C0419A3F
:1001B00001C04198409A001400144098001485FF33
:1001C00002C0419A01C04198409A0014001440981E
:1001D000001484FF02C0419A01C04198409A001463
:1001E00000144098001483FF02C0419A01C0419856
:1001F000409A001400144098001482FF02C0419AF3
:1002000001C04198409A001400144098001481FFE6
:1002100002C0419A01C04198409A001400144098CD
:10022000001480FF02C0419A01C04198409A001416
:10023000001440980014089580E00E94CB0080E0F4
:100240000E94CB0080E00E94CB0080E00C94CB00A9
:10025000EF92FF920F931F93CF93DF93CDB7DEB74B
:1002600062970FB6F894DEBF0FBECDBF7C01DC01F4
:100270001C968C917A8369835C834B835E834D8368
:100280000D871E872F87813029F4CE0101960E94A9
:100290008C0006C01C861B861A86198618861F824B
:1002A00083E0888B1A8A198AD701ED91FC91048426
:1002B000F585E02DBE016F5F7F4FC70109956296FE
:1002C0000FB6F894DEBF0FBECDBFDF91CF911F9167
:1002D0000F91FF90EF900895EF92FF920F931F936D
:1002E000CF93DF93CDB7DEB762970FB6F894DEBF3A
:1002F0000FBECDBF7C01DC011C968C917A83698393
:100300005C834B835E834D830D871E872F878130EF
:1003100029F4CE0101960E948C0006C01C861B8623
:100320001A86198618861F82188A1A8A198AD7018E
:10033000ED91FC910484F585E02DBE016F5F7F4F48
:10034000C701099562960FB6F894DEBF0FBECDBF08
:10035000DF91CF911F910F91FF90EF90089580E072
:1003600090E00895FC018585968508950F931F936D
:10037000CF93DF9300D01F92CDB7DEB7AB011982C8
:100380001A821B82DC01ED91FC910190F081E02D3D
:1003900000E010E020E0BE016F5F7F4F09950F90F5
:1003A0000F900F90DF91CF911F910F9108950E94B0
:1003B000E011DC018D919C91009739F0DC01ED9109
:1003C000FC910280F381E02D09940895CF92DF9291
:1003D000FF920F931F93CF93DF93EB016C012FE0FC
:1003E000C20ED11CDC011F968D919C9150970097F5
:1003F00039F0DC01ED91FC910190F081E02D09953F
:100400000E941C018C819D81181619060CF074C085
:10041000E881F9812281222321F03885230F08F415
:100420002FEF3E85239F020E20E0211D1124F22E86
:100430000181002321F02F81020F08F40FEF2D8599
:10044000029F000E00E0011D11241081112321F0F4
:100450002E81120F08F41FEF2C85129F010E10E061
:10046000111D11248F2D90E080959095807C992707
:100470009595879595958795282F206C802F90E0EE
:1004800080959095807C992734E0959587953A954D
:10049000E1F7822B212F30E020953095207C332707
:1004A00046E0359527954A95E1F7822B0E94CB00CF
:1004B0008F2D0E94CB00802F0E94CB00812F0E94A5
:1004C000CB002F8588819981820F911D27FD9A95F8
:1004D000998388838C819D8101979D838C838985F5
:1004E0009E81891B8E838A859F81891B8F838B8543
:1004F0009885891B888786CF0E941C01C601DF91E1
:10050000CF911F910F91FF90DF90CF900C94D90164
:10051000399A389A0F960C94D9011F920F920FB600
:100520000F921124CF92DF92EF92FF922F933F937D
:100530004F935F936F937F938F939F93AF93BF93EB
:10054000EF93FF9390916E0082E0892780936E0075
:100550000E9426066B017C01809156019091570103
:10056000A0915801B091590140915101509152010F
:100570006091530170915401841B950BA60BB70B2E
:100580008C0D9D1DAE1DBF1D80935601909357018C
:10059000A0935801B093590120916701222309F4D7
:1005A00041C0409163015091640160916501709177
:1005B000660184179507A607B707B0F44091560166
:1005C00050915701609158017091590180915F01DC
:1005D00090916001A0916101B091620148175907A3
:1005E0006A077B07F8F006C083E10E9407050197C0
:1005F00029F705C083E10E940705892B99F4109221
:100600005601109257011092580110925901809191
:100610005A01811152C01092670180915A018823BA
:1006200009F45BC00E9426062EE531E040E050E070
:100630000E948A11672B682B692BE9F480914D0188
:1006400090914E01A0914F01B09150010196A11DD2
:10065000B11D80934D0190934E01A0934F01B09333
:1006600050018DE00E94070561E0892B09F060E0F0
:100670008DE00E943005C0925101D0925201E0926B
:100680005301F092540180916E00826080936E005D
:10069000FF91EF91BF91AF919F918F917F916F915A
:1006A0005F914F913F912F91FF90EF90DF90CF900E
:1006B0000F900FBE0F901F90189583E10E940705C1
:1006C00061E0892B09F060E083E10E9430058091B0
:1006D0005A01815080935A01A0CF809167018823ED
:1006E00009F4A0CF80915B0190915C01A0915D0124
:1006F000B0915E0180935F0190936001A0936101CE
:10070000B09362018FCFCF92DF92EF92FF920F935F
:100710001F93A8950E9426066B017C0180917701AA
:100720000E94070520917801892B09F0C4C021118E
:1007300035C080917B0190917C01A0917D01B091A9
:100740007E01B701A601481B590B6A0B7B0B8091F8
:10075000870190918801A0E0B0E084179507A60773
:10076000B707E0F41092790110927A0181E080934A
:100770007801C0927F01D0928001E0928101F092D5
:1007800082018091890190918A01892B39F48091AD
:100790008B0190918C01892B09F4C7C0809179015C
:1007A000811133C08091890190918A01009769F18C
:1007B00040917F015091800160918101709182018F
:1007C00097018601041B150B260B370BA0E0B0E048
:1007D00080179107A207B307C0F481E080937901E5
:1007E00080912201882309F457C010922201EE243F
:1007F000E39401E010E020E030E048EE53E060E0F8
:1008000070E081E00E945F054AC080918B01909169
:100810008C01009709F4A6C040917F01509180019E
:10082000609181017091820197018601041B150B73
:10083000260B370BA0E0B0E080179107A207B307A3
:1008400008F090C08091830190918401A09185016E
:10085000B0918601B701A601481B590B6A0B7B0BAF
:1008600080918D0190918E01A0E0B0E084179507F2
:10087000A607B70708F076C081E080937A01C0929E
:100880008301D0928401E0928501F09286018FEF7E
:10089000809322016FEF05C08FEF8093220160915A
:1008A000220180E090E01F910F91FF90EF90DF9088
:1008B000CF900C945811222309F454C080917F01E9
:1008C00090918001A0918101B0918201B701A601B0
:1008D000481B590B6A0B7B0B809187019091880113
:1008E000A0E0B0E084179507A607B707D8F51092E7
:1008F0007801C0927B01D0927C01E0927D01F09260
:100900007E018091890190918A01892B31F4809137
:100910008B0190918C01892B29F1809179018111B2
:1009200021C080917A0181111DC0809122018F5FC9
:10093000873008F081E0809322016091220180E0FD
:1009400090E00E945811E0902201EE2059F00CE254
:1009500011E020E030E046E450E060E070E081E04B
:100960000E945F051F910F91FF90EF90DF90CF9055
:100970000895833081F028F4813099F08230A1F01D
:1009800008958730A9F08830B9F08430D1F480918F
:1009900080008F7D03C0809180008F7780938000DE
:1009A000089584B58F7702C084B58F7D84BD089586
:1009B0008091B0008F7703C08091B0008F7D8093CD
:1009C000B00008953FB7F8948091940190919501FB
:1009D000A0919601B091970126B5A89B05C02F3F25
:1009E00019F00196A11DB11D3FBFBA2FA92F982F55
:1009F0008827820F911DA11DB11DBC01CD0142E0D0
:100A0000660F771F881F991F4A95D1F70895CF93D6
:100A1000DF93282F30E0F901E255FF4F8491F9016F
:100A2000E656FF4FD491F901EA57FF4FC491CC230A
:100A300091F081110E94B904EC2FF0E0EE0FFF1F3E
:100A4000E458FF4FA591B491EC91ED2381E090E043
:100A500021F480E002C080E090E0DF91CF91089522
:100A60001F93CF93DF93282F30E0F901E255FF4F1A
:100A70008491F901E656FF4FD491F901EA57FF4FEF
:100A8000C491CC23C1F0162F81110E94B904EC2F20
:100A9000F0E0EE0FFF1FEE58FF4FA591B4919FB706
:100AA000F894111104C08C91D095D82302C0EC9118
:100AB000DE2BDC939FBFDF91CF911F9108954F9262
:100AC0005F926F927F928F929F92AF92BF92EF92BE
:100AD0000F931F932A013B0148015901909167012F
:100AE000992319F0811103C02FC0882321F060E001
:100AF00083E10E943005409263015092640160924C
:100B000065017092660180925F0190926001A092EF
:100B10006101B092620181E090E0A0E0B0E08093DA
:100B20005B0190935C01A0935D01B0935E01EE0CBC
:100B3000E0925A01109256011092570110925801FA
:100B400010925901809367011F910F91EF90BF9010
:100B5000AF909F908F907F906F905F904F9008958F
:100B6000CF93DF9390E0FC01E656FF4F2491FC0108
:100B7000EA57FF4F8491882361F190E0880F991F15
:100B8000FC01E859FF4FC591D491FC01EE58FF4F8D
:100B9000A591B491611109C09FB7F89488812095FF
:100BA00082238883EC912E230BC0623061F49FB7BF
:100BB000F8948881322F309583238883EC912E2BF3
:100BC0002C939FBF06C08FB7F894E8812E2B288303
:100BD0008FBFDF91CF9108958F929F92AF92BF9276
:100BE000CF92DF92EF92FF926B017C010E94E204B0
:100BF0004B015C01C114D104E104F104F1F00E9445
:100C0000E204DC01CB0188199909AA09BB09883ED5
:100C10009340A105B10570F321E0C21AD108E108A3
:100C2000F10888EE880E83E0981EA11CB11CC11447
:100C3000D104E104F10419F7DDCFFF90EF90DF90CC
:100C4000CF90BF90AF909F908F9008952FB7F8945A
:100C50006091900170919101809192019091930126
:100C60002FBF08953F924F925F926F927F928F9223
:100C70009F92AF92BF92CF92DF92EF92FF920F932B
:100C80001F93CF93DF9300D01F92CDB7DEB7D090E4
:100C90006A0180916D0190916E01A0916F01B091F8
:100CA0007001892B8A2B8B2BE9F00E94E2040091C2
:100CB0009E0110919F012091A0013091A101DC01C2
:100CC000CB01801B910BA20BB30B00916D01109116
:100CD0006E0120916F013091700180179107A2077A
:100CE000B307B8F20E94E20460939E0170939F01E3
:100CF0008093A0019093A101E0917501F09176019C
:100D0000309759F0409171015091720160917301D7
:100D1000709174018D2D0995D82EE0906801F090A6
:100D200069014D2C512C612C712CE114F10409F452
:100D30005EC0D7011C96CC901C9780916B0190915E
:100D40006C018436910510F41C961C92D701ED912C
:100D5000FC918280938019821A821B82D11014C068
:100D600009811A812B81F70145855685628173813E
:100D7000C701F4010995D7011C96CC921C971496D3
:100D8000ED90FC901597D1CFF70136968E010F5F4D
:100D90001F4F5701B9E0AB0EB11C2191222309F17D
:100DA00032803320F1F0822F90E0A0E0B0E09C018F
:100DB000AD012F5F3F4F4F4F5F4FC301B2010E9404
:100DC00066119B01AC01832D90E0A0E0B0E0BC0176
:100DD000CD016F5F7F4F8F4F9F4F0E946611D801EB
:100DE0008C930F5F1F4FEA15FB05B9F6B9CF8091C1
:100DF0009C0190919D018C010F5F1F4F10939D01ED
:100E000000939C014997B4F10E942606C090980176
:100E1000D0909901E0909A01F0909B019B01AC0168
:100E20002C193D094E095F0921F421E030E040E032
:100E300050E088EE93E0089FB001099F700D189F65
:100E4000700D1124072E000C880B990B0E948A113B
:100E500030936C0120936B0110929D0110929C01C4
:100E60000E942606609398017093990180939A01DD
:100E700090939B010F900F900F90DF91CF911F9156
:100E80000F91FF90EF90DF90CF90BF90AF909F9029
:100E90008F907F906F905F904F903F9008951F923A
:100EA0000F920FB60F9211242F933F938F939F931E
:100EB000AF93BF938091900190919101A091920185
:100EC000B091930130918F0123E0230F2D3720F44F
:100ED0000196A11DB11D05C026E8230F0296A11D94
:100EE000B11D20938F018093900190939101A09365
:100EF0009201B09393018091940190919501A091FA
:100F00009601B09197010196A11DB11D80939401A6
:100F100090939501A0939601B0939701BF91AF91E3
:100F20009F918F913F912F910F900FBE0F901F9027
:100F30001895789484B5826084BD84B5816084BD41
:100F400085B5826085BD85B5816085BD80916E0067
:100F5000816080936E001092810080918100826098
:100F600080938100809181008160809381008091D5
:100F700080008160809380008091B10084608093C4
:100F8000B1008091B00081608093B00080917A00C0
:100F9000846080937A0080917A00826080937A00E6
:100FA00080917A00816080937A0080917A008068D5
:100FB00080937A001092C10080E090E00E9450116E
:100FC000809322018750883F38F460E080E090E011
:100FD0000E9458111092220160E084E10E94B00545
:100FE00060E085E10E94B00561E083E10E94B00508
:100FF00060E083E10E94300561E08EE00E94B00570
:1010000061E08FE00E94B00561E080E10E94300560
:1010100061E080E10E94B00560E081E10E9430055E
:1010200061E081E10E94B00561E08DE00E94B005C1
:1010300099E288E10FB6F894A895809360000FBEFE
:101040009093600087E087BD80916E0082608093FE
:101050006E0080913601811145C0109228011092D6
:1010600027018FEF80932B0180932C0180932D011A
:1010700080932E0180932F018093300181E0809333
:101080003101109233011092320110922A01109214
:1010900029018091680190916901892B31F485E2E1
:1010A00091E09093690180936801E0912301F091B0
:1010B0002401309721F085E291E09583848385E2D5
:1010C00091E0909324018093230184E191E0909337
:1010D000260180932501109235011092340181E0A0
:1010E00080933601399A389A84E391E00E94D901BD
:1010F00084E491E0909328018093270182E090E0BE
:101100009093330180933201EE24E39401E010E0E8
:1011100020E030E048E755E060E070E080E00E94C9
:101120005F056CED75E080E090E00E94EC05E090DA
:1011300022018FEF8E0D8E3F58F40CE211E020E07B
:1011400030E046E450E060E070E080E00E945F053F
:1011500062E0809177010E94B005C0E0D0E01FEF0F
:1011600002E10E94830380912201811114C0109238
:101170004C0110924B0110924A01109244011092BE
:1011800045011092460110924701109248011092B9
:1011900049010E94320680912201813009F007C185
:1011A00010924C0110924B0110934A01109243018E
:1011B00010924201109241011092400110923F01A1
:1011C00010923E0180914C018F3F09F449C08091FB
:1011D0002201813009F044C00E94830380914C01B8
:1011E0008F5F80934C0190914A0120914B01809335
:1011F0004401209345019093460180934701209339
:101200004801909349010E94320665E070E080E059
:1012100090E00E94EC05D6CF80912201813009F048
:1012200048C00E94830380914A01815080934A0103
:1012300090914B0120914C012093440190934501E2
:101240008093460120934701909348018093490180
:101250000E94320665E070E080E090E00E94EC05BC
:1012600080914A01882329F1D7CF809122018130D2
:1012700009F048C00E94830380914B018F5F8093E7
:101280004B0190914A0120914C012093440180939D
:101290004501909346012093470180934801909324
:1012A00049010E94320665E070E080E090E00E9413
:1012B000EC0580914B018F3FC1F624C08091220143
:1012C000813009F048C00E94830380914C01815015
:1012D00080934C0190914A0120914B0180934401ED
:1012E0002093450190934601809347012093480144
:1012F000909349010E94320665E070E080E090E042
:101300000E94EC0580914C01882329F1D7CF809170
:101310002201813009F047C00E94830380914A0175
:101320008F5F80934A0190914B0120914C01209353
:101330004401909345018093460120934701909387
:101340004801809349010E94320665E070E080E028
:1013500090E00E94EC0580914A018F3FC1F623C0C6
:1013600080912201813019F50E94830380914B0105
:10137000815080934B0190914A0120914C01209320
:101380004401809345019093460120934701809347
:101390004801909349010E94320665E070E080E0C8
:1013A00090E00E94EC0580914B018111D9CF809192
:1013B0002201823009F0F1C110924C0110924B01D0
:1013C00010924A0110924301109242011092410181
:1013D0001092400110923F0110923E0180914C0109
:1013E0008F3F09F449C080912201823009F044C046
:1013F0000E94830380914C018F5F80934C019091F8
:101400004A0120914B018093440120934501909320
:1014100046018093470120934801909349010E941F
:10142000320665E070E080E090E00E94EC05D6CFE7
:1014300080912201823009F046C00E94830380918E
:101440004C01815080934C0190914A0120914B01B5
:101450008093440120934501909346018093470176
:1014600020934801909349010E94320665E070E0A4
:1014700080E090E00E94EC0580914C01882319F1F6
:10148000D7CF80912201823009F044C00E948303AB
:1014900080914C018F5F80934C0190914B01809320
:1014A00044019093450180934601809347019093B6
:1014B0004801809349010E94320665E070E080E0B7
:1014C00090E00E94EC0580914C018F3FD1F622C044
:1014D00080912201823009F046C00E9483038091EE
:1014E0004C01815080934C0190914B0180934401B9
:1014F0009093450180934601809347019093480162
:10150000809349010E94320665E070E080E090E03F
:101510000E94EC0580914C01882329F1D9CF80915C
:101520002201823009F048C00E94830380914A0161
:101530008F5F80934A0190914B0120914C01209341
:101540004401909345018093460120934701909375
:101550004801809349010E94320665E070E080E016
:1015600090E00E94EC0580914A018F3FC1F624C0B3
:1015700080912201823009F046C00E94830380914D
:101580004A01815080934A0190914B0120914C0176
:101590002093440190934501809346012093470195
:1015A00090934801809349010E94320665E070E003
:1015B00080E090E00E94EC0580914A01882319F1B7
:1015C000D7CF80912201823009F044C00E9483036A
:1015D00080914A018F5F80934A0190914C019093D2
:1015E0004401809345018093460190934701809385
:1015F0004801809349010E94320665E070E080E076
:1016000090E00E94EC0580914A018F3FD1F622C004
:1016100080912201823009F046C00E9483038091AC
:101620004A01815080934A0190914C01909344016A
:101630008093450180934601909347018093480130
:10164000809349010E94320665E070E080E090E0FE
:101650000E94EC0580914A01882329F1D9CF80911D
:101660002201823009F048C00E94830380914B011F
:101670008F5F80934B0190914A0120914C01209300
:101680004401809345019093460120934701809344
:101690004801909349010E94320665E070E080E0C5
:1016A00090E00E94EC0580914B018F3FC1F624C071
:1016B00080912201823009F046C00E94830380910C
:1016C0004B01815080934B0190914A0120914C0134
:1016D0002093440180934501909346012093470154
:1016E00080934801909349010E94320665E070E0C2
:1016F00080E090E00E94EC0580914B01882319F175
:10170000D7CF80912201823009F043C00E94830329
:1017100080914B018F5F80934B0190914A018093A0
:101720004401809345019093460180934701809343
:101730004801909349010E94320665E070E080E024
:1017400090E00E94EC0580914B018F3FD1F621C0C3
:1017500080912201823009F50E94830380914B0120
:10176000815080934B0190914A0180934401809372
:1017700045019093460180934701809348019093DF
:1017800049010E94320665E070E080E090E00E942E
:10179000EC0580914B018111DBCF809122018330D8
:1017A00009F060C010924C0100934B0110924A0165
:1017B0001092430110924201109241011092400197
:1017C00010923F0110923E0180914B01883C08F03D
:1017D0003FC0809122018330D9F50E94830380911C
:1017E0004B018F5F80934B018093440180934501AF
:1017F000809346018093470180934801809349017B
:101800000E9432066AE070E080E090E00E94EC0501
:10181000DBCF809122018330F9F40E948303809111
:101820004B01815080934B0180934401809345018B
:10183000809346018093470180934801809349013A
:101840000E9432066AE070E080E090E00E94EC05C1
:1018500080914B018331E8F668E770E080E090E02A
:101860000E94EC0580912201843009F038C1109269
:101870004C0110924B0110934A01109243011092B7
:101880004201109241011093400110923F011092C9
:101890003E011092440110924501109346011093AD
:1018A000470110924801109249010E94320680912E
:1018B0004A018093400180914C0190912201943023
:1018C00031F58F3F21F10E94830380914C018F5F9E
:1018D00080934C0190914A0120914B0180934401E7
:1018E000209345019093460190913E012091400143
:1018F0002093470180934801909349010E9432064A
:1019000065E070E080E090E00E94EC05D4CF809329
:101910003F0180914A0190912201943031F5882352
:1019200021F10E94830380914A01815080934A01F2
:1019300090914B0120914C012093440190934501DB
:101940008093460190913E0120913F018093470191
:1019500020934801909349010E94320665E070E0AF
:1019600080E090E00E94EC05D4CF8093400180910C
:101970004B0190912201943031F58F3F21F10E946B
:10198000830380914B018F5F80934B0190914A01BB
:1019900020914C012093440180934501909346018E
:1019A00090913F012091400120934701909348017D
:1019B000809349010E94320665E070E080E090E08B
:1019C0000E94EC05D4CF80933E0180914C01909110
:1019D0002201943031F5882321F10E948303809104
:1019E0004C01815080934C0190914A0120914B0110
:1019F00080934401209345019093460190913E01CC
:101A00002091400120934701809348019093490120
:101A10000E94320665E070E080E090E00E94EC05F4
:101A2000D4CF80933F0180914A019091220194305C
:101A300031F58F3F21F10E94830380914A018F5F2E
:101A400080934A0190914B0120914C0120934401D5
:101A5000909345018093460190913E0120913F0172
:101A60008093470120934801909349010E943206D8
:101A700065E070E080E090E00E94EC05D4CF8093B8
:101A8000400180914B0190912201943031F58823DF
:101A900021F10E94830380914B01815080934B017F
:101AA00090914A0120914C0120934401809345017B
:101AB0009093460190913F0120914001209347016E
:101AC00090934801809349010E94320665E070E0DE
:101AD00080E090E00E94EC05D4CF80933E0180919D
:101AE0002201853009F052C210924C0110924B0134
:101AF00010924A011092430110924201109241014A
:101B00001092400110923F0110923E0180914C01D1
:101B100090912201953031F58F3F21F10E9483038E
:101B200080914C018F5F80934C01909141012091F5
:101B30004201809344012093450190934601909186
:101B40003E012091400120934701809348019093EA
:101B500049010E94320665E070E080E090E00E945A
:101B6000EC05D4CF8093430180933F0180914C01D9
:101B700090912201953031F5882321F10E94830351
:101B800080914C01815080934C01909141012091B2
:101B90004201809344012093450190934601909126
:101BA0003E0120914001209347018093480190938A
:101BB00049010E94320665E070E080E090E00E94FA
:101BC000EC05D4CF8093430180933F0180914C0179
:101BD00090912201953011F58F3F01F10E9483030E
:101BE00080914C018F5F80934C01909141018093D3
:101BF0004401809345019093460190914001909358
:101C0000470180934801809349010E94320665E0B4
:101C100070E080E090E00E94EC05D8CF8093430113
:101C20008093420180933F0180933E0180914C015B
:101C300090912201953011F5882301F10E948303D0
:101C400080914C01815080934C019091410180938F
:101C500044018093450190934601909140019093F7
:101C6000470180934801809349010E94320665E054
:101C700070E080E090E00E94EC05D8CF80934301B3
:101C80008093420180933F0180933E0180914A01FD
:101C900090912201953031F58F3F21F10E9483030D
:101CA00080914A018F5F80934A0190914101209178
:101CB0004301209344018093450190934601909104
:101CC0003F01209140012093470190934801809368
:101CD00049010E94320665E070E080E090E00E94D9
:101CE000EC05D4CF8093420180933E0180914A015C
:101CF00090912201953031F5882321F10E948303D0
:101D000080914A01815080934A0190914101209134
:101D100043012093440180934501909346019091A3
:101D20003F01209140012093470190934801809307
:101D300049010E94320665E070E080E090E00E9478
:101D4000EC05D4CF8093420180933E0180914A01FB
:101D500090912201953011F58F3F01F10E9483038C
:101D600080914A018F5F80934A0190914301909343
:101D70004401809345018093460190913F018093F7
:101D8000470190934801809349010E94320665E023
:101D900070E080E090E00E94EC05D8CF8093420193
:101DA000809341018093400180933E0180914A01DC
:101DB00090912201953011F5882301F10E9483034F
:101DC00080914A01815080934A0190914301909300
:101DD0004401809345018093460190913F01809397
:101DE000470190934801809349010E94320665E0C3
:101DF00070E080E090E00E94EC05D8CF8093420133
:101E0000809341018093400180933E0180914B017A
:101E100090912201953031F58F3F21F10E9483038B
:101E200080914B018F5F80934B01909142012091F3
:101E30004301209344019093450180934601909182
:101E40003E0120913F0180934701209348019093E8
:101E500049010E94320665E070E080E090E00E9457
:101E6000EC05D4CF809341018093400180914B01D8
:101E700090912201953031F5882321F10E9483034E
:101E800080914B01815080934B01909142012091B0
:101E90004301209344019093450180934601909122
:101EA0003E0120913F018093470120934801909388
:101EB00049010E94320665E070E080E090E00E94F7
:101EC000EC05D4CF809341018093400180914B0178
:101ED00090912201953011F58F3F01F10E9483030B
:101EE00080914B018F5F80934B01909142018093D1
:101EF0004401909345018093460190913E01809367
:101F0000470180934801909349010E94320665E0A1
:101F100070E080E090E00E94EC05D8CF8093430110
:101F2000809341018093400180933F0180914B0158
:101F300090912201953011F5882301F10E948303CD
:101F400080914B01815080934B019091420180938D
:101F50004401909345018093460190913E01809306
:101F6000470180934801909349010E94320665E041
:101F700070E080E090E00E94EC05D8CF80934301B0
:101F8000809341018093400180933F018091220121
:101F9000863009F032C110924C0110924B01109220
:101FA0004A01109243011092420110924101109295
:101FB000400110923F0110923E0180914B0190919F
:101FC0002201963011F58F3F01F10E948303809129
:101FD0004B018F5F80934B0190914301909344019B
:101FE000809345018093460190913E018093470183
:101FF00080934801909349010E94320665E070E0A9
:1020000080E090E00E94EC05D8CF8093420180935D
:1020100041018093400180933F0180914B01909159
:102020002201963011F5882301F10E9483038091EB
:102030004B01815080934B01909143019093440157
:10204000809345018093460190913E018093470122
:1020500080934801909349010E94320665E070E048
:1020600080E090E00E94EC05D8CF809342018093FD
:1020700041018093400180933F0180914B019091F9
:102080002201963011F58F3F01F10E948303809168
:102090004B018F5F80934B019091410180934401EC
:1020A000809345019093460190913F0180934701B1
:1020B00090934801809349010E94320665E070E0E8
:1020C00080E090E00E94EC05D8CF8093430180939C
:1020D00042018093400180933E0180914B01909199
:1020E0002201963011F5882301F10E94830380912B
:1020F0004B01815080934B019091410180934401A9
:10210000809345019093460190913F018093470150
:1021100090934801809349010E94320665E070E087
:1021200080E090E00E94EC05D8CF8093430180933B
:1021300042018093400180933E0180914B01909138
:102140002201963011F58F3F01F10E9483038091A7
:102150004B018F5F80934B0190914201809344012A
:1021600090934501809346019091400190934701DF
:1021700080934801809349010E94320665E070E037
:1021800080E090E00E94EC05D8CF809343018093DB
:10219000410180933F0180933E0180914B019091DA
:1021A0002201963011F5882301F10E94830380916A
:1021B0004B01815080934B019091420180934401E7
:1021C000909345018093460190914001909347017F
:1021D00080934801809349010E94320665E070E0D7
:1021E00080E090E00E94EC05D8CF8093430180937B
:1021F000410180933F0180933E01809122018F3FF6
:10220000A1F480934C0180934B0180934A01809309
:102210004401809345018093460180934701809358
:102220004801809349010E943206209711F40C94D2
:10223000B1080E9400000C94B108EAE6F1E08FEFCB
:10224000808312821182148613868FEF9FEFDC0148
:1022500087839087A187B287E7E7F1E082E08083F8
:1022600011821282138214821582168217821086BE
:10227000118612861386148615861686178685E5BE
:1022800090E0918B808B8CED95E0938B828B88EB2B
:102290009BE0958B848B88EE93E0978B868B0895DB
:1022A000F999FECF92BD81BDF89A992780B508951E
:1022B000262FF999FECF1FBA92BD81BD20BD0FB662
:1022C000F894FA9AF99A0FBE01960895DB018F935C
:1022D0009F930E94AC11BF91AF91A29F800D911D61
:1022E000A39F900DB29F900D1124089597FB072E88
:1022F00016F4009407D077FD09D00E94B71107FCAF
:1023000005D03EF4909581959F4F08957095619505
:102310007F4F0895A1E21A2EAA1BBB1BFD010DC021
:10232000AA1FBB1FEE1FFF1FA217B307E407F50785
:1023300020F0A21BB30BE40BF50B661F771F881F61
:10234000991F1A9469F760957095809590959B01F7
:10235000AC01BD01CF0108950E94D111A59F900D40
:10236000B49F900DA49F800D911D11240895AA1B68
:10237000BB1B51E107C0AA1FBB1FA617B70710F070
:10238000A61BB70B881F991F5A95A9F780959095A2
:10239000BC01CD010895EE0FFF1F0590F491E02DD3
:1023A0000994A29FB001B39FC001A39F700D811D2E
:1023B0001124911DB29F700D811D1124911D08954E
:0E23C00081E090E0F8940C94E511F894FFCFC2
:1023CE0000000000D701D701D701B601B201AF015D
:1023DE00000000006C0128018802B601B201AF01B5
:0223EE00E60106
:00000001FF
